{
  "contractName": "MySimpleContract",
  "abi": [
    {
      "inputs": [],
      "name": "counter",
      "outputs": [
        {
          "internalType": "uint256",
          "name": "",
          "type": "uint256"
        }
      ],
      "stateMutability": "view",
      "type": "function"
    },
    {
      "inputs": [],
      "name": "message",
      "outputs": [
        {
          "internalType": "string",
          "name": "",
          "type": "string"
        }
      ],
      "stateMutability": "view",
      "type": "function"
    },
    {
      "inputs": [
        {
          "internalType": "string",
          "name": "_msg",
          "type": "string"
        }
      ],
      "name": "setMessage",
      "outputs": [],
      "stateMutability": "nonpayable",
      "type": "function"
    },
    {
      "inputs": [],
      "name": "getMessage",
      "outputs": [
        {
          "internalType": "string",
          "name": "",
          "type": "string"
        }
      ],
      "stateMutability": "view",
      "type": "function"
    },
    {
      "inputs": [],
      "name": "incrementCounter",
      "outputs": [],
      "stateMutability": "nonpayable",
      "type": "function"
    },
    {
      "inputs": [],
      "name": "getCounter",
      "outputs": [
        {
          "internalType": "uint256",
          "name": "",
          "type": "uint256"
        }
      ],
      "stateMutability": "view",
      "type": "function"
    },
    {
      "inputs": [],
      "name": "reset",
      "outputs": [],
      "stateMutability": "nonpayable",
      "type": "function"
    }
  ],
  "bytecode": "0x608060405234801561000f575f80fd5b506108738061001d5f395ff3fe608060405234801561000f575f80fd5b506004361061007b575f3560e01c80638ada066e116100595780638ada066e146100c3578063ce6d41de146100e1578063d826f88f146100ff578063e21f37ce146101095761007b565b8063368b87721461007f5780635b34b9661461009b57806361bc221a146100a5575b5f80fd5b610099600480360381019061009491906103ee565b610127565b005b6100a3610139565b005b6100ad610152565b6040516100ba919061044d565b60405180910390f35b6100cb610158565b6040516100d8919061044d565b60405180910390f35b6100e9610161565b6040516100f691906104e0565b60405180910390f35b6101076101f0565b005b610111610216565b60405161011e91906104e0565b60405180910390f35b805f908161013591906106fa565b5050565b60015f81548092919061014b906107f6565b9190505550565b60015481565b5f600154905090565b60605f805461016f9061052d565b80601f016020809104026020016040519081016040528092919081815260200182805461019b9061052d565b80156101e65780601f106101bd576101008083540402835291602001916101e6565b820191905f5260205f20905b8154815290600101906020018083116101c957829003601f168201915b5050505050905090565b60405180602001604052805f8152505f908161020c91906106fa565b505f600181905550565b5f80546102229061052d565b80601f016020809104026020016040519081016040528092919081815260200182805461024e9061052d565b80156102995780601f1061027057610100808354040283529160200191610299565b820191905f5260205f20905b81548152906001019060200180831161027c57829003601f168201915b505050505081565b5f604051905090565b5f80fd5b5f80fd5b5f80fd5b5f80fd5b5f601f19601f8301169050919050565b7f4e487b71000000000000000000000000000000000000000000000000000000005f52604160045260245ffd5b610300826102ba565b810181811067ffffffffffffffff8211171561031f5761031e6102ca565b5b80604052505050565b5f6103316102a1565b905061033d82826102f7565b919050565b5f67ffffffffffffffff82111561035c5761035b6102ca565b5b610365826102ba565b9050602081019050919050565b828183375f83830152505050565b5f61039261038d84610342565b610328565b9050828152602081018484840111156103ae576103ad6102b6565b5b6103b9848285610372565b509392505050565b5f82601f8301126103d5576103d46102b2565b5b81356103e5848260208601610380565b91505092915050565b5f60208284031215610403576104026102aa565b5b5f82013567ffffffffffffffff8111156104205761041f6102ae565b5b61042c848285016103c1565b91505092915050565b5f819050919050565b61044781610435565b82525050565b5f6020820190506104605f83018461043e565b92915050565b5f81519050919050565b5f82825260208201905092915050565b5f5b8381101561049d578082015181840152602081019050610482565b5f8484015250505050565b5f6104b282610466565b6104bc8185610470565b93506104cc818560208601610480565b6104d5816102ba565b840191505092915050565b5f6020820190508181035f8301526104f881846104a8565b905092915050565b7f4e487b71000000000000000000000000000000000000000000000000000000005f52602260045260245ffd5b5f600282049050600182168061054457607f821691505b60208210810361055757610556610500565b5b50919050565b5f819050815f5260205f209050919050565b5f6020601f8301049050919050565b5f82821b905092915050565b5f600883026105b97fffffffffffffffffffffffffffffffffffffffffffffffffffffffffffffffff8261057e565b6105c3868361057e565b95508019841693508086168417925050509392505050565b5f819050919050565b5f6105fe6105f96105f484610435565b6105db565b610435565b9050919050565b5f819050919050565b610617836105e4565b61062b61062382610605565b84845461058a565b825550505050565b5f90565b61063f610633565b61064a81848461060e565b505050565b5b8181101561066d576106625f82610637565b600181019050610650565b5050565b601f8211156106b2576106838161055d565b61068c8461056f565b8101602085101561069b578190505b6106af6106a78561056f565b83018261064f565b50505b505050565b5f82821c905092915050565b5f6106d25f19846008026106b7565b1980831691505092915050565b5f6106ea83836106c3565b9150826002028217905092915050565b61070382610466565b67ffffffffffffffff81111561071c5761071b6102ca565b5b610726825461052d565b610731828285610671565b5f60209050601f831160018114610762575f8415610750578287015190505b61075a85826106df565b8655506107c1565b601f1984166107708661055d565b5f5b8281101561079757848901518255600182019150602085019450602081019050610772565b868310156107b457848901516107b0601f8916826106c3565b8355505b6001600288020188555050505b505050505050565b7f4e487b71000000000000000000000000000000000000000000000000000000005f52601160045260245ffd5b5f61080082610435565b91507fffffffffffffffffffffffffffffffffffffffffffffffffffffffffffffffff8203610832576108316107c9565b5b60018201905091905056fea264697066735822122082a0312217db7e0f61c6f35d53c7370120f9685a829533ca970c960f7cd0799064736f6c63430008150033",
  "immutableReferences": {},
  "source": "// SPDX-License-Identifier: MIT\r\npragma solidity ^0.8.0;\r\n\r\ncontract MySimpleContract {\r\n    string public message;       \r\n    uint256 public counter;      \r\n\r\n    // Write function - allows user to set a new message\r\n    function setMessage(string memory _msg) public {\r\n        message = _msg;\r\n    }\r\n\r\n    // Read function - returns the current message\r\n    function getMessage() public view returns (string memory) {\r\n        return message;\r\n    }\r\n\r\n    // Write function - increases the counter by 1\r\n    function incrementCounter() public {\r\n        counter++;\r\n    }\r\n\r\n    // Read function - returns the current counter value\r\n    function getCounter() public view returns (uint256) {\r\n        return counter;\r\n    }\r\n\r\n    // Write function - resets both message and counter\r\n    function reset() public {\r\n        message = \"\";\r\n        counter = 0;\r\n    }\r\n}\r\n",
  "sourcePath": "C:\\Users\\hamma\\Assignment3\\contracts\\MySimpleContract.sol",
  "compiler": {
    "name": "solc",
    "version": "0.8.21+commit.d9974bed.Emscripten.clang"
  },
  "schemaVersion": "3.4.16",
  "updatedAt": "2025-11-23T10:39:22.947Z",
  "devdoc": {
    "kind": "dev",
    "methods": {},
    "version": 1
  },
  "userdoc": {
    "kind": "user",
    "methods": {},
    "version": 1
  }
}